{
  "_format": "hh-sol-artifact-1",
  "contractName": "GearFight",
  "sourceName": "contracts/GearFight.sol",
  "abi": [
    {
      "inputs": [],
      "stateMutability": "nonpayable",
      "type": "constructor"
    },
    {
      "anonymous": false,
      "inputs": [
        {
          "indexed": true,
          "internalType": "address",
          "name": "owner",
          "type": "address"
        },
        {
          "indexed": true,
          "internalType": "address",
          "name": "approved",
          "type": "address"
        },
        {
          "indexed": true,
          "internalType": "uint256",
          "name": "tokenId",
          "type": "uint256"
        }
      ],
      "name": "Approval",
      "type": "event"
    },
    {
      "anonymous": false,
      "inputs": [
        {
          "indexed": true,
          "internalType": "address",
          "name": "owner",
          "type": "address"
        },
        {
          "indexed": true,
          "internalType": "address",
          "name": "operator",
          "type": "address"
        },
        {
          "indexed": false,
          "internalType": "bool",
          "name": "approved",
          "type": "bool"
        }
      ],
      "name": "ApprovalForAll",
      "type": "event"
    },
    {
      "anonymous": false,
      "inputs": [
        {
          "indexed": false,
          "internalType": "uint256",
          "name": "_fromTokenId",
          "type": "uint256"
        },
        {
          "indexed": false,
          "internalType": "uint256",
          "name": "_toTokenId",
          "type": "uint256"
        }
      ],
      "name": "BatchMetadataUpdate",
      "type": "event"
    },
    {
      "anonymous": false,
      "inputs": [
        {
          "indexed": false,
          "internalType": "uint256",
          "name": "_tokenId",
          "type": "uint256"
        }
      ],
      "name": "MetadataUpdate",
      "type": "event"
    },
    {
      "anonymous": false,
      "inputs": [
        {
          "indexed": true,
          "internalType": "address",
          "name": "previousOwner",
          "type": "address"
        },
        {
          "indexed": true,
          "internalType": "address",
          "name": "newOwner",
          "type": "address"
        }
      ],
      "name": "OwnershipTransferred",
      "type": "event"
    },
    {
      "anonymous": false,
      "inputs": [
        {
          "indexed": true,
          "internalType": "address",
          "name": "from",
          "type": "address"
        },
        {
          "indexed": true,
          "internalType": "address",
          "name": "to",
          "type": "address"
        },
        {
          "indexed": true,
          "internalType": "uint256",
          "name": "tokenId",
          "type": "uint256"
        }
      ],
      "name": "Transfer",
      "type": "event"
    },
    {
      "inputs": [
        {
          "internalType": "address",
          "name": "to",
          "type": "address"
        },
        {
          "internalType": "uint256",
          "name": "tokenId",
          "type": "uint256"
        }
      ],
      "name": "approve",
      "outputs": [],
      "stateMutability": "nonpayable",
      "type": "function"
    },
    {
      "inputs": [
        {
          "internalType": "address",
          "name": "owner",
          "type": "address"
        }
      ],
      "name": "balanceOf",
      "outputs": [
        {
          "internalType": "uint256",
          "name": "",
          "type": "uint256"
        }
      ],
      "stateMutability": "view",
      "type": "function"
    },
    {
      "inputs": [
        {
          "internalType": "uint256",
          "name": "tokenId",
          "type": "uint256"
        },
        {
          "internalType": "uint16",
          "name": "_xp",
          "type": "uint16"
        }
      ],
      "name": "gainXP",
      "outputs": [],
      "stateMutability": "nonpayable",
      "type": "function"
    },
    {
      "inputs": [
        {
          "internalType": "uint256",
          "name": "tokenId",
          "type": "uint256"
        }
      ],
      "name": "getApproved",
      "outputs": [
        {
          "internalType": "address",
          "name": "",
          "type": "address"
        }
      ],
      "stateMutability": "view",
      "type": "function"
    },
    {
      "inputs": [
        {
          "internalType": "address",
          "name": "owner",
          "type": "address"
        },
        {
          "internalType": "address",
          "name": "operator",
          "type": "address"
        }
      ],
      "name": "isApprovedForAll",
      "outputs": [
        {
          "internalType": "bool",
          "name": "",
          "type": "bool"
        }
      ],
      "stateMutability": "view",
      "type": "function"
    },
    {
      "inputs": [
        {
          "internalType": "uint256",
          "name": "tokenId",
          "type": "uint256"
        },
        {
          "components": [
            {
              "internalType": "uint16",
              "name": "health",
              "type": "uint16"
            },
            {
              "internalType": "uint16",
              "name": "speed",
              "type": "uint16"
            },
            {
              "internalType": "uint16",
              "name": "mind",
              "type": "uint16"
            },
            {
              "components": [
                {
                  "internalType": "uint16",
                  "name": "sharpDamage",
                  "type": "uint16"
                },
                {
                  "internalType": "uint16",
                  "name": "bluntDamage",
                  "type": "uint16"
                },
                {
                  "internalType": "uint16",
                  "name": "burnDamage",
                  "type": "uint16"
                },
                {
                  "internalType": "uint16",
                  "name": "pierce",
                  "type": "uint16"
                },
                {
                  "internalType": "uint16",
                  "name": "lethality",
                  "type": "uint16"
                }
              ],
              "internalType": "struct GearFactory.OffensiveStats",
              "name": "offensiveStats",
              "type": "tuple"
            },
            {
              "components": [
                {
                  "internalType": "uint16",
                  "name": "sharpResistance",
                  "type": "uint16"
                },
                {
                  "internalType": "uint16",
                  "name": "bluntResistance",
                  "type": "uint16"
                },
                {
                  "internalType": "uint16",
                  "name": "burnResistance",
                  "type": "uint16"
                },
                {
                  "internalType": "uint16",
                  "name": "guard",
                  "type": "uint16"
                }
              ],
              "internalType": "struct GearFactory.DefensiveStats",
              "name": "defensiveStats",
              "type": "tuple"
            },
            {
              "internalType": "uint16",
              "name": "handling",
              "type": "uint16"
            }
          ],
          "internalType": "struct GearFactory.WeaponStats",
          "name": "_upgradeStats",
          "type": "tuple"
        },
        {
          "internalType": "string[]",
          "name": "newAbilities",
          "type": "string[]"
        },
        {
          "internalType": "uint16",
          "name": "xpLeft",
          "type": "uint16"
        }
      ],
      "name": "levelUp",
      "outputs": [],
      "stateMutability": "nonpayable",
      "type": "function"
    },
    {
      "inputs": [],
      "name": "maxWeaponsRequest",
      "outputs": [
        {
          "internalType": "uint256",
          "name": "",
          "type": "uint256"
        }
      ],
      "stateMutability": "view",
      "type": "function"
    },
    {
      "inputs": [],
      "name": "name",
      "outputs": [
        {
          "internalType": "string",
          "name": "",
          "type": "string"
        }
      ],
      "stateMutability": "view",
      "type": "function"
    },
    {
      "inputs": [],
      "name": "owner",
      "outputs": [
        {
          "internalType": "address",
          "name": "",
          "type": "address"
        }
      ],
      "stateMutability": "view",
      "type": "function"
    },
    {
      "inputs": [
        {
          "internalType": "uint256",
          "name": "tokenId",
          "type": "uint256"
        }
      ],
      "name": "ownerOf",
      "outputs": [
        {
          "internalType": "address",
          "name": "",
          "type": "address"
        }
      ],
      "stateMutability": "view",
      "type": "function"
    },
    {
      "inputs": [],
      "name": "renounceOwnership",
      "outputs": [],
      "stateMutability": "nonpayable",
      "type": "function"
    },
    {
      "inputs": [
        {
          "components": [
            {
              "internalType": "string",
              "name": "name",
              "type": "string"
            },
            {
              "internalType": "string",
              "name": "description",
              "type": "string"
            },
            {
              "internalType": "string",
              "name": "image",
              "type": "string"
            },
            {
              "internalType": "uint16",
              "name": "level",
              "type": "uint16"
            },
            {
              "internalType": "uint16",
              "name": "stage",
              "type": "uint16"
            },
            {
              "components": [
                {
                  "internalType": "uint16",
                  "name": "health",
                  "type": "uint16"
                },
                {
                  "internalType": "uint16",
                  "name": "speed",
                  "type": "uint16"
                },
                {
                  "internalType": "uint16",
                  "name": "mind",
                  "type": "uint16"
                },
                {
                  "components": [
                    {
                      "internalType": "uint16",
                      "name": "sharpDamage",
                      "type": "uint16"
                    },
                    {
                      "internalType": "uint16",
                      "name": "bluntDamage",
                      "type": "uint16"
                    },
                    {
                      "internalType": "uint16",
                      "name": "burnDamage",
                      "type": "uint16"
                    },
                    {
                      "internalType": "uint16",
                      "name": "pierce",
                      "type": "uint16"
                    },
                    {
                      "internalType": "uint16",
                      "name": "lethality",
                      "type": "uint16"
                    }
                  ],
                  "internalType": "struct GearFactory.OffensiveStats",
                  "name": "offensiveStats",
                  "type": "tuple"
                },
                {
                  "components": [
                    {
                      "internalType": "uint16",
                      "name": "sharpResistance",
                      "type": "uint16"
                    },
                    {
                      "internalType": "uint16",
                      "name": "bluntResistance",
                      "type": "uint16"
                    },
                    {
                      "internalType": "uint16",
                      "name": "burnResistance",
                      "type": "uint16"
                    },
                    {
                      "internalType": "uint16",
                      "name": "guard",
                      "type": "uint16"
                    }
                  ],
                  "internalType": "struct GearFactory.DefensiveStats",
                  "name": "defensiveStats",
                  "type": "tuple"
                },
                {
                  "internalType": "uint16",
                  "name": "handling",
                  "type": "uint16"
                }
              ],
              "internalType": "struct GearFactory.WeaponStats",
              "name": "weaponStats",
              "type": "tuple"
            },
            {
              "internalType": "uint16",
              "name": "xp",
              "type": "uint16"
            },
            {
              "internalType": "string",
              "name": "identity",
              "type": "string"
            },
            {
              "internalType": "string[]",
              "name": "abilities",
              "type": "string[]"
            }
          ],
          "internalType": "struct GearFactory.Weapon",
          "name": "newWeapon",
          "type": "tuple"
        }
      ],
      "name": "requestWeapon",
      "outputs": [],
      "stateMutability": "nonpayable",
      "type": "function"
    },
    {
      "inputs": [
        {
          "internalType": "address",
          "name": "from",
          "type": "address"
        },
        {
          "internalType": "address",
          "name": "to",
          "type": "address"
        },
        {
          "internalType": "uint256",
          "name": "tokenId",
          "type": "uint256"
        }
      ],
      "name": "safeTransferFrom",
      "outputs": [],
      "stateMutability": "nonpayable",
      "type": "function"
    },
    {
      "inputs": [
        {
          "internalType": "address",
          "name": "from",
          "type": "address"
        },
        {
          "internalType": "address",
          "name": "to",
          "type": "address"
        },
        {
          "internalType": "uint256",
          "name": "tokenId",
          "type": "uint256"
        },
        {
          "internalType": "bytes",
          "name": "data",
          "type": "bytes"
        }
      ],
      "name": "safeTransferFrom",
      "outputs": [],
      "stateMutability": "nonpayable",
      "type": "function"
    },
    {
      "inputs": [
        {
          "internalType": "address",
          "name": "operator",
          "type": "address"
        },
        {
          "internalType": "bool",
          "name": "approved",
          "type": "bool"
        }
      ],
      "name": "setApprovalForAll",
      "outputs": [],
      "stateMutability": "nonpayable",
      "type": "function"
    },
    {
      "inputs": [
        {
          "internalType": "uint256",
          "name": "_maxWeaponsRequest",
          "type": "uint256"
        }
      ],
      "name": "setWeaponsRequest",
      "outputs": [],
      "stateMutability": "nonpayable",
      "type": "function"
    },
    {
      "inputs": [
        {
          "internalType": "bytes4",
          "name": "interfaceId",
          "type": "bytes4"
        }
      ],
      "name": "supportsInterface",
      "outputs": [
        {
          "internalType": "bool",
          "name": "",
          "type": "bool"
        }
      ],
      "stateMutability": "view",
      "type": "function"
    },
    {
      "inputs": [],
      "name": "symbol",
      "outputs": [
        {
          "internalType": "string",
          "name": "",
          "type": "string"
        }
      ],
      "stateMutability": "view",
      "type": "function"
    },
    {
      "inputs": [
        {
          "internalType": "uint256",
          "name": "tokenId",
          "type": "uint256"
        }
      ],
      "name": "tokenURI",
      "outputs": [
        {
          "internalType": "string",
          "name": "",
          "type": "string"
        }
      ],
      "stateMutability": "view",
      "type": "function"
    },
    {
      "inputs": [
        {
          "internalType": "address",
          "name": "from",
          "type": "address"
        },
        {
          "internalType": "address",
          "name": "to",
          "type": "address"
        },
        {
          "internalType": "uint256",
          "name": "tokenId",
          "type": "uint256"
        }
      ],
      "name": "transferFrom",
      "outputs": [],
      "stateMutability": "nonpayable",
      "type": "function"
    },
    {
      "inputs": [
        {
          "internalType": "address",
          "name": "newOwner",
          "type": "address"
        }
      ],
      "name": "transferOwnership",
      "outputs": [],
      "stateMutability": "nonpayable",
      "type": "function"
    },
    {
      "inputs": [
        {
          "internalType": "uint256",
          "name": "",
          "type": "uint256"
        }
      ],
      "name": "weapons",
      "outputs": [
        {
          "internalType": "string",
          "name": "name",
          "type": "string"
        },
        {
          "internalType": "string",
          "name": "description",
          "type": "string"
        },
        {
          "internalType": "string",
          "name": "image",
          "type": "string"
        },
        {
          "internalType": "uint16",
          "name": "level",
          "type": "uint16"
        },
        {
          "internalType": "uint16",
          "name": "stage",
          "type": "uint16"
        },
        {
          "components": [
            {
              "internalType": "uint16",
              "name": "health",
              "type": "uint16"
            },
            {
              "internalType": "uint16",
              "name": "speed",
              "type": "uint16"
            },
            {
              "internalType": "uint16",
              "name": "mind",
              "type": "uint16"
            },
            {
              "components": [
                {
                  "internalType": "uint16",
                  "name": "sharpDamage",
                  "type": "uint16"
                },
                {
                  "internalType": "uint16",
                  "name": "bluntDamage",
                  "type": "uint16"
                },
                {
                  "internalType": "uint16",
                  "name": "burnDamage",
                  "type": "uint16"
                },
                {
                  "internalType": "uint16",
                  "name": "pierce",
                  "type": "uint16"
                },
                {
                  "internalType": "uint16",
                  "name": "lethality",
                  "type": "uint16"
                }
              ],
              "internalType": "struct GearFactory.OffensiveStats",
              "name": "offensiveStats",
              "type": "tuple"
            },
            {
              "components": [
                {
                  "internalType": "uint16",
                  "name": "sharpResistance",
                  "type": "uint16"
                },
                {
                  "internalType": "uint16",
                  "name": "bluntResistance",
                  "type": "uint16"
                },
                {
                  "internalType": "uint16",
                  "name": "burnResistance",
                  "type": "uint16"
                },
                {
                  "internalType": "uint16",
                  "name": "guard",
                  "type": "uint16"
                }
              ],
              "internalType": "struct GearFactory.DefensiveStats",
              "name": "defensiveStats",
              "type": "tuple"
            },
            {
              "internalType": "uint16",
              "name": "handling",
              "type": "uint16"
            }
          ],
          "internalType": "struct GearFactory.WeaponStats",
          "name": "weaponStats",
          "type": "tuple"
        },
        {
          "internalType": "uint16",
          "name": "xp",
          "type": "uint16"
        },
        {
          "internalType": "string",
          "name": "identity",
          "type": "string"
        }
      ],
      "stateMutability": "view",
      "type": "function"
    },
    {
      "inputs": [
        {
          "internalType": "address",
          "name": "",
          "type": "address"
        }
      ],
      "name": "weaponsRequested",
      "outputs": [
        {
          "internalType": "uint256",
          "name": "",
          "type": "uint256"
        }
      ],
      "stateMutability": "view",
      "type": "function"
    }
  ],
  "bytecode": "0x60806040523480156200001157600080fd5b506040518060400160405280600981526020017f47656172466967687400000000000000000000000000000000000000000000008152506040518060400160405280600281526020017f4746000000000000000000000000000000000000000000000000000000000000815250816000908051906020019062000096929190620001ae565b508060019080519060200190620000af929190620001ae565b505050620000d2620000c6620000e060201b60201c565b620000e860201b60201c565b6001600a81905550620002c3565b600033905090565b6000600760009054906101000a900473ffffffffffffffffffffffffffffffffffffffff16905081600760006101000a81548173ffffffffffffffffffffffffffffffffffffffff021916908373ffffffffffffffffffffffffffffffffffffffff1602179055508173ffffffffffffffffffffffffffffffffffffffff168173ffffffffffffffffffffffffffffffffffffffff167f8be0079c531659141344cd1fd0a4f28419497f9722a3daafe3b4186f6b6457e060405160405180910390a35050565b828054620001bc906200028d565b90600052602060002090601f016020900481019282620001e057600085556200022c565b82601f10620001fb57805160ff19168380011785556200022c565b828001600101855582156200022c579182015b828111156200022b5782518255916020019190600101906200020e565b5b5090506200023b91906200023f565b5090565b5b808211156200025a57600081600090555060010162000240565b5090565b7f4e487b7100000000000000000000000000000000000000000000000000000000600052602260045260246000fd5b60006002820490506001821680620002a657607f821691505b60208210811415620002bd57620002bc6200025e565b5b50919050565b61554680620002d36000396000f3fe608060405234801561001057600080fd5b506004361061014d5760003560e01c80637c8e6006116100c3578063b377501c1161007c578063b377501c146103a1578063b53b9dde146103bf578063b88d4fde146103db578063c87b56dd146103f7578063e985e9c514610427578063f2fde38b146104575761014d565b80637c8e6006146102e15780638bd20d08146102fd5780638da5cb5b1461032d57806395d89b411461034b578063a22cb46514610369578063abbf3a11146103855761014d565b8063272777a011610115578063272777a01461020857806342842e0e14610224578063555e73c8146102405780636352211e1461027757806370a08231146102a7578063715018a6146102d75761014d565b806301ffc9a71461015257806306fdde0314610182578063081812fc146101a0578063095ea7b3146101d057806323b872dd146101ec575b600080fd5b61016c600480360381019061016791906135cd565b610473565b6040516101799190613615565b60405180910390f35b61018a6104d4565b60405161019791906136c9565b60405180910390f35b6101ba60048036038101906101b59190613721565b610566565b6040516101c7919061378f565b60405180910390f35b6101ea60048036038101906101e591906137d6565b6105ac565b005b61020660048036038101906102019190613816565b6106c4565b005b610222600480360381019061021d9190613c6f565b610724565b005b61023e60048036038101906102399190613816565b610df7565b005b61025a60048036038101906102559190613721565b610e17565b60405161026e989796959493929190613e4e565b60405180910390f35b610291600480360381019061028c9190613721565b61127b565b60405161029e919061378f565b60405180910390f35b6102c160048036038101906102bc9190613eea565b611302565b6040516102ce9190613f26565b60405180910390f35b6102df6113ba565b005b6102fb60048036038101906102f691906140af565b6113ce565b005b61031760048036038101906103129190613eea565b611865565b6040516103249190613f26565b60405180910390f35b61033561187d565b604051610342919061378f565b60405180910390f35b6103536118a7565b60405161036091906136c9565b60405180910390f35b610383600480360381019061037e9190614124565b611939565b005b61039f600480360381019061039a9190613721565b61194f565b005b6103a9611961565b6040516103b69190613f26565b60405180910390f35b6103d960048036038101906103d49190614164565b611967565b005b6103f560048036038101906103f09190614245565b612034565b005b610411600480360381019061040c9190613721565b612096565b60405161041e91906136c9565b60405180910390f35b610441600480360381019061043c91906142c8565b6121a9565b60405161044e9190613615565b60405180910390f35b610471600480360381019061046c9190613eea565b61223d565b005b6000634906490660e01b7bffffffffffffffffffffffffffffffffffffffffffffffffffffffff1916827bffffffffffffffffffffffffffffffffffffffffffffffffffffffff191614806104cd57506104cc826122c1565b5b9050919050565b6060600080546104e390614337565b80601f016020809104026020016040519081016040528092919081815260200182805461050f90614337565b801561055c5780601f106105315761010080835404028352916020019161055c565b820191906000526020600020905b81548152906001019060200180831161053f57829003601f168201915b5050505050905090565b6000610571826123a3565b6004600083815260200190815260200160002060009054906101000a900473ffffffffffffffffffffffffffffffffffffffff169050919050565b60006105b78261127b565b90508073ffffffffffffffffffffffffffffffffffffffff168373ffffffffffffffffffffffffffffffffffffffff161415610628576040517f08c379a000000000000000000000000000000000000000000000000000000000815260040161061f906143db565b60405180910390fd5b8073ffffffffffffffffffffffffffffffffffffffff166106476123ee565b73ffffffffffffffffffffffffffffffffffffffff1614806106765750610675816106706123ee565b6121a9565b5b6106b5576040517f08c379a00000000000000000000000000000000000000000000000000000000081526004016106ac9061446d565b60405180910390fd5b6106bf83836123f6565b505050565b6106d56106cf6123ee565b826124af565b610714576040517f08c379a000000000000000000000000000000000000000000000000000000000815260040161070b906144ff565b60405180910390fd5b61071f838383612544565b505050565b600960008581526020019081526020016000206040518061012001604052908160008201805461075390614337565b80601f016020809104026020016040519081016040528092919081815260200182805461077f90614337565b80156107cc5780601f106107a1576101008083540402835291602001916107cc565b820191906000526020600020905b8154815290600101906020018083116107af57829003601f168201915b505050505081526020016001820180546107e590614337565b80601f016020809104026020016040519081016040528092919081815260200182805461081190614337565b801561085e5780601f106108335761010080835404028352916020019161085e565b820191906000526020600020905b81548152906001019060200180831161084157829003601f168201915b5050505050815260200160028201805461087790614337565b80601f01602080910402602001604051908101604052809291908181526020018280546108a390614337565b80156108f05780601f106108c5576101008083540402835291602001916108f0565b820191906000526020600020905b8154815290600101906020018083116108d357829003601f168201915b505050505081526020016003820160009054906101000a900461ffff1661ffff1661ffff1681526020016003820160029054906101000a900461ffff1661ffff1661ffff168152602001600482016040518060c00160405290816000820160009054906101000a900461ffff1661ffff1661ffff1681526020016000820160029054906101000a900461ffff1661ffff1661ffff1681526020016000820160049054906101000a900461ffff1661ffff1661ffff168152602001600182016040518060a00160405290816000820160009054906101000a900461ffff1661ffff1661ffff1681526020016000820160029054906101000a900461ffff1661ffff1661ffff1681526020016000820160049054906101000a900461ffff1661ffff1661ffff1681526020016000820160069054906101000a900461ffff1661ffff1661ffff1681526020016000820160089054906101000a900461ffff1661ffff1661ffff16815250508152602001600282016040518060800160405290816000820160009054906101000a900461ffff1661ffff1661ffff1681526020016000820160029054906101000a900461ffff1661ffff1661ffff1681526020016000820160049054906101000a900461ffff1661ffff1661ffff1681526020016000820160069054906101000a900461ffff1661ffff1661ffff168152505081526020016003820160009054906101000a900461ffff1661ffff1661ffff168152505081526020016008820160009054906101000a900461ffff1661ffff1661ffff168152602001600982018054610b4590614337565b80601f0160208091040260200160405190810160405280929190818152602001828054610b7190614337565b8015610bbe5780601f10610b9357610100808354040283529160200191610bbe565b820191906000526020600020905b815481529060010190602001808311610ba157829003601f168201915b50505050508152602001600a8201805480602002602001604051908101604052809291908181526020016000905b82821015610c98578382906000526020600020018054610c0b90614337565b80601f0160208091040260200160405190810160405280929190818152602001828054610c3790614337565b8015610c845780601f10610c5957610100808354040283529160200191610c84565b820191906000526020600020905b815481529060010190602001808311610c6757829003601f168201915b505050505081526020019060010190610bec565b505050508152505060008160e00151511415610cb357600080fd5b60008160000151511415610cc657600080fd5b60008160400151511415610cd957600080fd5b73__$f1f2e15f48fa7f8df27c8f35a0c4c8a415$__639266d8fe600960008881526020019081526020016000208686866040518563ffffffff1660e01b8152600401610d28949392919061478b565b60006040518083038186803b158015610d4057600080fd5b505af4158015610d54573d6000803e3d6000fd5b50505050610df08573__$f1f2e15f48fa7f8df27c8f35a0c4c8a415$__63b2958b14600960008a81526020019081526020016000206040518263ffffffff1660e01b8152600401610da59190614c8d565b600060405180830381865af4158015610dc2573d6000803e3d6000fd5b505050506040513d6000823e3d601f19601f82011682018060405250810190610deb9190614d1f565b61283e565b5050505050565b610e1283838360405180602001604052806000815250612034565b505050565b6009602052806000526040600020600091509050806000018054610e3a90614337565b80601f0160208091040260200160405190810160405280929190818152602001828054610e6690614337565b8015610eb35780601f10610e8857610100808354040283529160200191610eb3565b820191906000526020600020905b815481529060010190602001808311610e9657829003601f168201915b505050505090806001018054610ec890614337565b80601f0160208091040260200160405190810160405280929190818152602001828054610ef490614337565b8015610f415780601f10610f1657610100808354040283529160200191610f41565b820191906000526020600020905b815481529060010190602001808311610f2457829003601f168201915b505050505090806002018054610f5690614337565b80601f0160208091040260200160405190810160405280929190818152602001828054610f8290614337565b8015610fcf5780601f10610fa457610100808354040283529160200191610fcf565b820191906000526020600020905b815481529060010190602001808311610fb257829003601f168201915b5050505050908060030160009054906101000a900461ffff16908060030160029054906101000a900461ffff1690806004016040518060c00160405290816000820160009054906101000a900461ffff1661ffff1661ffff1681526020016000820160029054906101000a900461ffff1661ffff1661ffff1681526020016000820160049054906101000a900461ffff1661ffff1661ffff168152602001600182016040518060a00160405290816000820160009054906101000a900461ffff1661ffff1661ffff1681526020016000820160029054906101000a900461ffff1661ffff1661ffff1681526020016000820160049054906101000a900461ffff1661ffff1661ffff1681526020016000820160069054906101000a900461ffff1661ffff1661ffff1681526020016000820160089054906101000a900461ffff1661ffff1661ffff16815250508152602001600282016040518060800160405290816000820160009054906101000a900461ffff1661ffff1661ffff1681526020016000820160029054906101000a900461ffff1661ffff1661ffff1681526020016000820160049054906101000a900461ffff1661ffff1661ffff1681526020016000820160069054906101000a900461ffff1661ffff1661ffff168152505081526020016003820160009054906101000a900461ffff1661ffff1661ffff1681525050908060080160009054906101000a900461ffff16908060090180546111f890614337565b80601f016020809104026020016040519081016040528092919081815260200182805461122490614337565b80156112715780601f1061124657610100808354040283529160200191611271565b820191906000526020600020905b81548152906001019060200180831161125457829003601f168201915b5050505050905088565b600080611287836128e9565b9050600073ffffffffffffffffffffffffffffffffffffffff168173ffffffffffffffffffffffffffffffffffffffff1614156112f9576040517f08c379a00000000000000000000000000000000000000000000000000000000081526004016112f090614db4565b60405180910390fd5b80915050919050565b60008073ffffffffffffffffffffffffffffffffffffffff168273ffffffffffffffffffffffffffffffffffffffff161415611373576040517f08c379a000000000000000000000000000000000000000000000000000000000815260040161136a90614e46565b60405180910390fd5b600360008373ffffffffffffffffffffffffffffffffffffffff1673ffffffffffffffffffffffffffffffffffffffff168152602001908152602001600020549050919050565b6113c2612926565b6113cc60006129a4565b565b8060008160e001515114156113e257600080fd5b600081600001515114156113f557600080fd5b6000816040015151141561140857600080fd5b600a54600b60003373ffffffffffffffffffffffffffffffffffffffff1673ffffffffffffffffffffffffffffffffffffffff168152602001908152602001600020541061145557600080fd5b60006114616008612a6a565b905061146d6008612a78565b6114773382612a8e565b826009600083815260200190815260200160002060008201518160000190805190602001906114a79291906133fa565b5060208201518160010190805190602001906114c49291906133fa565b5060408201518160020190805190602001906114e19291906133fa565b5060608201518160030160006101000a81548161ffff021916908361ffff16021790555060808201518160030160026101000a81548161ffff021916908361ffff16021790555060a08201518160040160008201518160000160006101000a81548161ffff021916908361ffff16021790555060208201518160000160026101000a81548161ffff021916908361ffff16021790555060408201518160000160046101000a81548161ffff021916908361ffff16021790555060608201518160010160008201518160000160006101000a81548161ffff021916908361ffff16021790555060208201518160000160026101000a81548161ffff021916908361ffff16021790555060408201518160000160046101000a81548161ffff021916908361ffff16021790555060608201518160000160066101000a81548161ffff021916908361ffff16021790555060808201518160000160086101000a81548161ffff021916908361ffff160217905550505060808201518160020160008201518160000160006101000a81548161ffff021916908361ffff16021790555060208201518160000160026101000a81548161ffff021916908361ffff16021790555060408201518160000160046101000a81548161ffff021916908361ffff16021790555060608201518160000160066101000a81548161ffff021916908361ffff160217905550505060a08201518160030160006101000a81548161ffff021916908361ffff160217905550505060c08201518160080160006101000a81548161ffff021916908361ffff16021790555060e082015181600901908051906020019061174f9291906133fa565b5061010082015181600a01908051906020019061176d929190613480565b509050506118098173__$f1f2e15f48fa7f8df27c8f35a0c4c8a415$__63b2958b14600960008681526020019081526020016000206040518263ffffffff1660e01b81526004016117be9190614c8d565b600060405180830381865af41580156117db573d6000803e3d6000fd5b505050506040513d6000823e3d601f19601f820116820180604052508101906118049190614d1f565b61283e565b6001600b60003373ffffffffffffffffffffffffffffffffffffffff1673ffffffffffffffffffffffffffffffffffffffff16815260200190815260200160002060008282546118599190614e95565b92505081905550505050565b600b6020528060005260406000206000915090505481565b6000600760009054906101000a900473ffffffffffffffffffffffffffffffffffffffff16905090565b6060600180546118b690614337565b80601f01602080910402602001604051908101604052809291908181526020018280546118e290614337565b801561192f5780601f106119045761010080835404028352916020019161192f565b820191906000526020600020905b81548152906001019060200180831161191257829003601f168201915b5050505050905090565b61194b6119446123ee565b8383612aac565b5050565b611957612926565b80600a8190555050565b600a5481565b600960008381526020019081526020016000206040518061012001604052908160008201805461199690614337565b80601f01602080910402602001604051908101604052809291908181526020018280546119c290614337565b8015611a0f5780601f106119e457610100808354040283529160200191611a0f565b820191906000526020600020905b8154815290600101906020018083116119f257829003601f168201915b50505050508152602001600182018054611a2890614337565b80601f0160208091040260200160405190810160405280929190818152602001828054611a5490614337565b8015611aa15780601f10611a7657610100808354040283529160200191611aa1565b820191906000526020600020905b815481529060010190602001808311611a8457829003601f168201915b50505050508152602001600282018054611aba90614337565b80601f0160208091040260200160405190810160405280929190818152602001828054611ae690614337565b8015611b335780601f10611b0857610100808354040283529160200191611b33565b820191906000526020600020905b815481529060010190602001808311611b1657829003601f168201915b505050505081526020016003820160009054906101000a900461ffff1661ffff1661ffff1681526020016003820160029054906101000a900461ffff1661ffff1661ffff168152602001600482016040518060c00160405290816000820160009054906101000a900461ffff1661ffff1661ffff1681526020016000820160029054906101000a900461ffff1661ffff1661ffff1681526020016000820160049054906101000a900461ffff1661ffff1661ffff168152602001600182016040518060a00160405290816000820160009054906101000a900461ffff1661ffff1661ffff1681526020016000820160029054906101000a900461ffff1661ffff1661ffff1681526020016000820160049054906101000a900461ffff1661ffff1661ffff1681526020016000820160069054906101000a900461ffff1661ffff1661ffff1681526020016000820160089054906101000a900461ffff1661ffff1661ffff16815250508152602001600282016040518060800160405290816000820160009054906101000a900461ffff1661ffff1661ffff1681526020016000820160029054906101000a900461ffff1661ffff1661ffff1681526020016000820160049054906101000a900461ffff1661ffff1661ffff1681526020016000820160069054906101000a900461ffff1661ffff1661ffff168152505081526020016003820160009054906101000a900461ffff1661ffff1661ffff168152505081526020016008820160009054906101000a900461ffff1661ffff1661ffff168152602001600982018054611d8890614337565b80601f0160208091040260200160405190810160405280929190818152602001828054611db490614337565b8015611e015780601f10611dd657610100808354040283529160200191611e01565b820191906000526020600020905b815481529060010190602001808311611de457829003601f168201915b50505050508152602001600a8201805480602002602001604051908101604052809291908181526020016000905b82821015611edb578382906000526020600020018054611e4e90614337565b80601f0160208091040260200160405190810160405280929190818152602001828054611e7a90614337565b8015611ec75780601f10611e9c57610100808354040283529160200191611ec7565b820191906000526020600020905b815481529060010190602001808311611eaa57829003601f168201915b505050505081526020019060010190611e2f565b505050508152505060008160e00151511415611ef657600080fd5b60008160000151511415611f0957600080fd5b60008160400151511415611f1c57600080fd5b73__$f1f2e15f48fa7f8df27c8f35a0c4c8a415$__634c25f4c260096000868152602001908152602001600020846040518363ffffffff1660e01b8152600401611f67929190614eeb565b60006040518083038186803b158015611f7f57600080fd5b505af4158015611f93573d6000803e3d6000fd5b5050505061202f8373__$f1f2e15f48fa7f8df27c8f35a0c4c8a415$__63b2958b14600960008881526020019081526020016000206040518263ffffffff1660e01b8152600401611fe49190614c8d565b600060405180830381865af4158015612001573d6000803e3d6000fd5b505050506040513d6000823e3d601f19601f8201168201806040525081019061202a9190614d1f565b61283e565b505050565b61204561203f6123ee565b836124af565b612084576040517f08c379a000000000000000000000000000000000000000000000000000000000815260040161207b906144ff565b60405180910390fd5b61209084848484612c19565b50505050565b60606120a1826123a3565b60006006600084815260200190815260200160002080546120c190614337565b80601f01602080910402602001604051908101604052809291908181526020018280546120ed90614337565b801561213a5780601f1061210f5761010080835404028352916020019161213a565b820191906000526020600020905b81548152906001019060200180831161211d57829003601f168201915b50505050509050600061214b612c75565b90506000815114156121615781925050506121a4565b60008251111561219657808260405160200161217e929190614f50565b604051602081830303815290604052925050506121a4565b61219f84612c8c565b925050505b919050565b6000600560008473ffffffffffffffffffffffffffffffffffffffff1673ffffffffffffffffffffffffffffffffffffffff16815260200190815260200160002060008373ffffffffffffffffffffffffffffffffffffffff1673ffffffffffffffffffffffffffffffffffffffff16815260200190815260200160002060009054906101000a900460ff16905092915050565b612245612926565b600073ffffffffffffffffffffffffffffffffffffffff168173ffffffffffffffffffffffffffffffffffffffff1614156122b5576040517f08c379a00000000000000000000000000000000000000000000000000000000081526004016122ac90614fe6565b60405180910390fd5b6122be816129a4565b50565b60007f80ac58cd000000000000000000000000000000000000000000000000000000007bffffffffffffffffffffffffffffffffffffffffffffffffffffffff1916827bffffffffffffffffffffffffffffffffffffffffffffffffffffffff1916148061238c57507f5b5e139f000000000000000000000000000000000000000000000000000000007bffffffffffffffffffffffffffffffffffffffffffffffffffffffff1916827bffffffffffffffffffffffffffffffffffffffffffffffffffffffff1916145b8061239c575061239b82612cf4565b5b9050919050565b6123ac81612d5e565b6123eb576040517f08c379a00000000000000000000000000000000000000000000000000000000081526004016123e290614db4565b60405180910390fd5b50565b600033905090565b816004600083815260200190815260200160002060006101000a81548173ffffffffffffffffffffffffffffffffffffffff021916908373ffffffffffffffffffffffffffffffffffffffff160217905550808273ffffffffffffffffffffffffffffffffffffffff166124698361127b565b73ffffffffffffffffffffffffffffffffffffffff167f8c5be1e5ebec7d5bd14f71427d1e84f3dd0314c0f7b2291e5b200ac8c7c3b92560405160405180910390a45050565b6000806124bb8361127b565b90508073ffffffffffffffffffffffffffffffffffffffff168473ffffffffffffffffffffffffffffffffffffffff1614806124fd57506124fc81856121a9565b5b8061253b57508373ffffffffffffffffffffffffffffffffffffffff1661252384610566565b73ffffffffffffffffffffffffffffffffffffffff16145b91505092915050565b8273ffffffffffffffffffffffffffffffffffffffff166125648261127b565b73ffffffffffffffffffffffffffffffffffffffff16146125ba576040517f08c379a00000000000000000000000000000000000000000000000000000000081526004016125b190615078565b60405180910390fd5b600073ffffffffffffffffffffffffffffffffffffffff168273ffffffffffffffffffffffffffffffffffffffff16141561262a576040517f08c379a00000000000000000000000000000000000000000000000000000000081526004016126219061510a565b60405180910390fd5b6126378383836001612d9f565b8273ffffffffffffffffffffffffffffffffffffffff166126578261127b565b73ffffffffffffffffffffffffffffffffffffffff16146126ad576040517f08c379a00000000000000000000000000000000000000000000000000000000081526004016126a490615078565b60405180910390fd5b6004600082815260200190815260200160002060006101000a81549073ffffffffffffffffffffffffffffffffffffffff02191690556001600360008573ffffffffffffffffffffffffffffffffffffffff1673ffffffffffffffffffffffffffffffffffffffff168152602001908152602001600020600082825403925050819055506001600360008473ffffffffffffffffffffffffffffffffffffffff1673ffffffffffffffffffffffffffffffffffffffff16815260200190815260200160002060008282540192505081905550816002600083815260200190815260200160002060006101000a81548173ffffffffffffffffffffffffffffffffffffffff021916908373ffffffffffffffffffffffffffffffffffffffff160217905550808273ffffffffffffffffffffffffffffffffffffffff168473ffffffffffffffffffffffffffffffffffffffff167fddf252ad1be2c89b69c2b068fc378daa952ba7f163c4a11628f55a4df523b3ef60405160405180910390a46128398383836001612da5565b505050565b61284782612d5e565b612886576040517f08c379a000000000000000000000000000000000000000000000000000000000815260040161287d9061519c565b60405180910390fd5b806006600084815260200190815260200160002090805190602001906128ad9291906133fa565b507ff8e1a15aba9398e019f0b49df1a4fde98ee17ae345cb5f6b5e2c27f5033e8ce7826040516128dd9190613f26565b60405180910390a15050565b60006002600083815260200190815260200160002060009054906101000a900473ffffffffffffffffffffffffffffffffffffffff169050919050565b61292e6123ee565b73ffffffffffffffffffffffffffffffffffffffff1661294c61187d565b73ffffffffffffffffffffffffffffffffffffffff16146129a2576040517f08c379a000000000000000000000000000000000000000000000000000000000815260040161299990615208565b60405180910390fd5b565b6000600760009054906101000a900473ffffffffffffffffffffffffffffffffffffffff16905081600760006101000a81548173ffffffffffffffffffffffffffffffffffffffff021916908373ffffffffffffffffffffffffffffffffffffffff1602179055508173ffffffffffffffffffffffffffffffffffffffff168173ffffffffffffffffffffffffffffffffffffffff167f8be0079c531659141344cd1fd0a4f28419497f9722a3daafe3b4186f6b6457e060405160405180910390a35050565b600081600001549050919050565b6001816000016000828254019250508190555050565b612aa8828260405180602001604052806000815250612dab565b5050565b8173ffffffffffffffffffffffffffffffffffffffff168373ffffffffffffffffffffffffffffffffffffffff161415612b1b576040517f08c379a0000000000000000000000000000000000000000000000000000000008152600401612b1290615274565b60405180910390fd5b80600560008573ffffffffffffffffffffffffffffffffffffffff1673ffffffffffffffffffffffffffffffffffffffff16815260200190815260200160002060008473ffffffffffffffffffffffffffffffffffffffff1673ffffffffffffffffffffffffffffffffffffffff16815260200190815260200160002060006101000a81548160ff0219169083151502179055508173ffffffffffffffffffffffffffffffffffffffff168373ffffffffffffffffffffffffffffffffffffffff167f17307eab39ab6107e8899845ad3d59bd9653f200f220920489ca2b5937696c3183604051612c0c9190613615565b60405180910390a3505050565b612c24848484612544565b612c3084848484612e06565b612c6f576040517f08c379a0000000000000000000000000000000000000000000000000000000008152600401612c6690615306565b60405180910390fd5b50505050565b606060405180602001604052806000815250905090565b6060612c97826123a3565b6000612ca1612c75565b90506000815111612cc15760405180602001604052806000815250612cec565b80612ccb84612f8e565b604051602001612cdc929190614f50565b6040516020818303038152906040525b915050919050565b60007f01ffc9a7000000000000000000000000000000000000000000000000000000007bffffffffffffffffffffffffffffffffffffffffffffffffffffffff1916827bffffffffffffffffffffffffffffffffffffffffffffffffffffffff1916149050919050565b60008073ffffffffffffffffffffffffffffffffffffffff16612d80836128e9565b73ffffffffffffffffffffffffffffffffffffffff1614159050919050565b50505050565b50505050565b612db58383613066565b612dc26000848484612e06565b612e01576040517f08c379a0000000000000000000000000000000000000000000000000000000008152600401612df890615306565b60405180910390fd5b505050565b6000612e278473ffffffffffffffffffffffffffffffffffffffff16613284565b15612f81578373ffffffffffffffffffffffffffffffffffffffff1663150b7a02612e506123ee565b8786866040518563ffffffff1660e01b8152600401612e72949392919061537b565b6020604051808303816000875af1925050508015612eae57506040513d601f19601f82011682018060405250810190612eab91906153dc565b60015b612f31573d8060008114612ede576040519150601f19603f3d011682016040523d82523d6000602084013e612ee3565b606091505b50600081511415612f29576040517f08c379a0000000000000000000000000000000000000000000000000000000008152600401612f2090615306565b60405180910390fd5b805181602001fd5b63150b7a0260e01b7bffffffffffffffffffffffffffffffffffffffffffffffffffffffff1916817bffffffffffffffffffffffffffffffffffffffffffffffffffffffff191614915050612f86565b600190505b949350505050565b606060006001612f9d846132a7565b01905060008167ffffffffffffffff811115612fbc57612fbb61386e565b5b6040519080825280601f01601f191660200182016040528015612fee5781602001600182028036833780820191505090505b509050600082602001820190505b60011561305b578080600190039150507f3031323334353637383961626364656600000000000000000000000000000000600a86061a8153600a858161304557613044615409565b5b04945060008514156130565761305b565b612ffc565b819350505050919050565b600073ffffffffffffffffffffffffffffffffffffffff168273ffffffffffffffffffffffffffffffffffffffff1614156130d6576040517f08c379a00000000000000000000000000000000000000000000000000000000081526004016130cd90615484565b60405180910390fd5b6130df81612d5e565b1561311f576040517f08c379a0000000000000000000000000000000000000000000000000000000008152600401613116906154f0565b60405180910390fd5b61312d600083836001612d9f565b61313681612d5e565b15613176576040517f08c379a000000000000000000000000000000000000000000000000000000000815260040161316d906154f0565b60405180910390fd5b6001600360008473ffffffffffffffffffffffffffffffffffffffff1673ffffffffffffffffffffffffffffffffffffffff16815260200190815260200160002060008282540192505081905550816002600083815260200190815260200160002060006101000a81548173ffffffffffffffffffffffffffffffffffffffff021916908373ffffffffffffffffffffffffffffffffffffffff160217905550808273ffffffffffffffffffffffffffffffffffffffff16600073ffffffffffffffffffffffffffffffffffffffff167fddf252ad1be2c89b69c2b068fc378daa952ba7f163c4a11628f55a4df523b3ef60405160405180910390a4613280600083836001612da5565b5050565b6000808273ffffffffffffffffffffffffffffffffffffffff163b119050919050565b600080600090507a184f03e93ff9f4daa797ed6e38ed64bf6a1f0100000000000000008310613305577a184f03e93ff9f4daa797ed6e38ed64bf6a1f01000000000000000083816132fb576132fa615409565b5b0492506040810190505b6d04ee2d6d415b85acef81000000008310613342576d04ee2d6d415b85acef8100000000838161333857613337615409565b5b0492506020810190505b662386f26fc10000831061337157662386f26fc10000838161336757613366615409565b5b0492506010810190505b6305f5e100831061339a576305f5e10083816133905761338f615409565b5b0492506008810190505b61271083106133bf5761271083816133b5576133b4615409565b5b0492506004810190505b606483106133e257606483816133d8576133d7615409565b5b0492506002810190505b600a83106133f1576001810190505b80915050919050565b82805461340690614337565b90600052602060002090601f016020900481019282613428576000855561346f565b82601f1061344157805160ff191683800117855561346f565b8280016001018555821561346f579182015b8281111561346e578251825591602001919060010190613453565b5b50905061347c91906134e0565b5090565b8280548282559060005260206000209081019282156134cf579160200282015b828111156134ce5782518290805190602001906134be9291906133fa565b50916020019190600101906134a0565b5b5090506134dc91906134fd565b5090565b5b808211156134f95760008160009055506001016134e1565b5090565b5b8082111561351d57600081816135149190613521565b506001016134fe565b5090565b50805461352d90614337565b6000825580601f1061353f575061355e565b601f01602090049060005260206000209081019061355d91906134e0565b5b50565b6000604051905090565b600080fd5b600080fd5b60007fffffffff0000000000000000000000000000000000000000000000000000000082169050919050565b6135aa81613575565b81146135b557600080fd5b50565b6000813590506135c7816135a1565b92915050565b6000602082840312156135e3576135e261356b565b5b60006135f1848285016135b8565b91505092915050565b60008115159050919050565b61360f816135fa565b82525050565b600060208201905061362a6000830184613606565b92915050565b600081519050919050565b600082825260208201905092915050565b60005b8381101561366a57808201518184015260208101905061364f565b83811115613679576000848401525b50505050565b6000601f19601f8301169050919050565b600061369b82613630565b6136a5818561363b565b93506136b581856020860161364c565b6136be8161367f565b840191505092915050565b600060208201905081810360008301526136e38184613690565b905092915050565b6000819050919050565b6136fe816136eb565b811461370957600080fd5b50565b60008135905061371b816136f5565b92915050565b6000602082840312156137375761373661356b565b5b60006137458482850161370c565b91505092915050565b600073ffffffffffffffffffffffffffffffffffffffff82169050919050565b60006137798261374e565b9050919050565b6137898161376e565b82525050565b60006020820190506137a46000830184613780565b92915050565b6137b38161376e565b81146137be57600080fd5b50565b6000813590506137d0816137aa565b92915050565b600080604083850312156137ed576137ec61356b565b5b60006137fb858286016137c1565b925050602061380c8582860161370c565b9150509250929050565b60008060006060848603121561382f5761382e61356b565b5b600061383d868287016137c1565b935050602061384e868287016137c1565b925050604061385f8682870161370c565b9150509250925092565b600080fd5b7f4e487b7100000000000000000000000000000000000000000000000000000000600052604160045260246000fd5b6138a68261367f565b810181811067ffffffffffffffff821117156138c5576138c461386e565b5b80604052505050565b60006138d8613561565b90506138e4828261389d565b919050565b600080fd5b600061ffff82169050919050565b613905816138ee565b811461391057600080fd5b50565b600081359050613922816138fc565b92915050565b600060a0828403121561393e5761393d613869565b5b61394860a06138ce565b9050600061395884828501613913565b600083015250602061396c84828501613913565b602083015250604061398084828501613913565b604083015250606061399484828501613913565b60608301525060806139a884828501613913565b60808301525092915050565b6000608082840312156139ca576139c9613869565b5b6139d460806138ce565b905060006139e484828501613913565b60008301525060206139f884828501613913565b6020830152506040613a0c84828501613913565b6040830152506060613a2084828501613913565b60608301525092915050565b60006101a08284031215613a4357613a42613869565b5b613a4d60c06138ce565b90506000613a5d84828501613913565b6000830152506020613a7184828501613913565b6020830152506040613a8584828501613913565b6040830152506060613a9984828501613928565b606083015250610100613aae848285016139b4565b608083015250610180613ac384828501613913565b60a08301525092915050565b600080fd5b600067ffffffffffffffff821115613aef57613aee61386e565b5b602082029050602081019050919050565b600080fd5b600080fd5b600067ffffffffffffffff821115613b2557613b2461386e565b5b613b2e8261367f565b9050602081019050919050565b82818337600083830152505050565b6000613b5d613b5884613b0a565b6138ce565b905082815260208101848484011115613b7957613b78613b05565b5b613b84848285613b3b565b509392505050565b600082601f830112613ba157613ba0613acf565b5b8135613bb1848260208601613b4a565b91505092915050565b6000613bcd613bc884613ad4565b6138ce565b90508083825260208201905060208402830185811115613bf057613bef613b00565b5b835b81811015613c3757803567ffffffffffffffff811115613c1557613c14613acf565b5b808601613c228982613b8c565b85526020850194505050602081019050613bf2565b5050509392505050565b600082601f830112613c5657613c55613acf565b5b8135613c66848260208601613bba565b91505092915050565b6000806000806102008587031215613c8a57613c8961356b565b5b6000613c988782880161370c565b9450506020613ca987828801613a2c565b9350506101c085013567ffffffffffffffff811115613ccb57613cca613570565b5b613cd787828801613c41565b9250506101e0613ce987828801613913565b91505092959194509250565b613cfe816138ee565b82525050565b613d0d816138ee565b82525050565b60a082016000820151613d296000850182613d04565b506020820151613d3c6020850182613d04565b506040820151613d4f6040850182613d04565b506060820151613d626060850182613d04565b506080820151613d756080850182613d04565b50505050565b608082016000820151613d916000850182613d04565b506020820151613da46020850182613d04565b506040820151613db76040850182613d04565b506060820151613dca6060850182613d04565b50505050565b6101a082016000820151613de76000850182613d04565b506020820151613dfa6020850182613d04565b506040820151613e0d6040850182613d04565b506060820151613e206060850182613d13565b506080820151613e34610100850182613d7b565b5060a0820151613e48610180850182613d04565b50505050565b6000610280820190508181036000830152613e69818b613690565b90508181036020830152613e7d818a613690565b90508181036040830152613e918189613690565b9050613ea06060830188613cf5565b613ead6080830187613cf5565b613eba60a0830186613dd0565b613ec8610240830185613cf5565b818103610260830152613edb8184613690565b90509998505050505050505050565b600060208284031215613f0057613eff61356b565b5b6000613f0e848285016137c1565b91505092915050565b613f20816136eb565b82525050565b6000602082019050613f3b6000830184613f17565b92915050565b60006102a08284031215613f5857613f57613869565b5b613f636101206138ce565b9050600082013567ffffffffffffffff811115613f8357613f826138e9565b5b613f8f84828501613b8c565b600083015250602082013567ffffffffffffffff811115613fb357613fb26138e9565b5b613fbf84828501613b8c565b602083015250604082013567ffffffffffffffff811115613fe357613fe26138e9565b5b613fef84828501613b8c565b604083015250606061400384828501613913565b606083015250608061401784828501613913565b60808301525060a061402b84828501613a2c565b60a08301525061024061404084828501613913565b60c08301525061026082013567ffffffffffffffff811115614065576140646138e9565b5b61407184828501613b8c565b60e08301525061028082013567ffffffffffffffff811115614096576140956138e9565b5b6140a284828501613c41565b6101008301525092915050565b6000602082840312156140c5576140c461356b565b5b600082013567ffffffffffffffff8111156140e3576140e2613570565b5b6140ef84828501613f41565b91505092915050565b614101816135fa565b811461410c57600080fd5b50565b60008135905061411e816140f8565b92915050565b6000806040838503121561413b5761413a61356b565b5b6000614149858286016137c1565b925050602061415a8582860161410f565b9150509250929050565b6000806040838503121561417b5761417a61356b565b5b60006141898582860161370c565b925050602061419a85828601613913565b9150509250929050565b600067ffffffffffffffff8211156141bf576141be61386e565b5b6141c88261367f565b9050602081019050919050565b60006141e86141e3846141a4565b6138ce565b90508281526020810184848401111561420457614203613b05565b5b61420f848285613b3b565b509392505050565b600082601f83011261422c5761422b613acf565b5b813561423c8482602086016141d5565b91505092915050565b6000806000806080858703121561425f5761425e61356b565b5b600061426d878288016137c1565b945050602061427e878288016137c1565b935050604061428f8782880161370c565b925050606085013567ffffffffffffffff8111156142b0576142af613570565b5b6142bc87828801614217565b91505092959194509250565b600080604083850312156142df576142de61356b565b5b60006142ed858286016137c1565b92505060206142fe858286016137c1565b9150509250929050565b7f4e487b7100000000000000000000000000000000000000000000000000000000600052602260045260246000fd5b6000600282049050600182168061434f57607f821691505b6020821081141561436357614362614308565b5b50919050565b7f4552433732313a20617070726f76616c20746f2063757272656e74206f776e6560008201527f7200000000000000000000000000000000000000000000000000000000000000602082015250565b60006143c560218361363b565b91506143d082614369565b604082019050919050565b600060208201905081810360008301526143f4816143b8565b9050919050565b7f4552433732313a20617070726f76652063616c6c6572206973206e6f7420746f60008201527f6b656e206f776e6572206f7220617070726f76656420666f7220616c6c000000602082015250565b6000614457603d8361363b565b9150614462826143fb565b604082019050919050565b600060208201905081810360008301526144868161444a565b9050919050565b7f4552433732313a2063616c6c6572206973206e6f7420746f6b656e206f776e6560008201527f72206f7220617070726f76656400000000000000000000000000000000000000602082015250565b60006144e9602d8361363b565b91506144f48261448d565b604082019050919050565b60006020820190508181036000830152614518816144dc565b9050919050565b8082525050565b61452f816138ee565b82525050565b60a08201600082015161454b6000850182614526565b50602082015161455e6020850182614526565b5060408201516145716040850182614526565b5060608201516145846060850182614526565b5060808201516145976080850182614526565b50505050565b6080820160008201516145b36000850182614526565b5060208201516145c66020850182614526565b5060408201516145d96040850182614526565b5060608201516145ec6060850182614526565b50505050565b6101a0820160008201516146096000850182614526565b50602082015161461c6020850182614526565b50604082015161462f6040850182614526565b5060608201516146426060850182614535565b50608082015161465661010085018261459d565b5060a082015161466a610180850182614526565b50505050565b600081519050919050565b600082825260208201905092915050565b6000819050602082019050919050565b600082825260208201905092915050565b60006146b882613630565b6146c2818561469c565b93506146d281856020860161364c565b6146db8161367f565b840191505092915050565b60006146f283836146ad565b905092915050565b6000602082019050919050565b600061471282614670565b61471c818561467b565b93508360208202850161472e8561468c565b8060005b8581101561476a578484038952815161474b85826146e6565b9450614756836146fa565b925060208a01995050600181019050614732565b50829750879550505050505092915050565b614785816138ee565b82525050565b6000610200820190506147a1600083018761451f565b6147ae60208301866145f2565b8181036101c08301526147c18185614707565b90506147d16101e083018461477c565b95945050505050565b60008190508160005260206000209050919050565b600081546147fc81614337565b614806818661469c565b94506001821660008114614821576001811461483357614866565b60ff1983168652602086019350614866565b61483c856147da565b60005b8381101561485e5781548189015260018201915060208101905061483f565b808801955050505b50505092915050565b60008160001c9050919050565b600061ffff82169050919050565b600061489d6148988361486f565b61487c565b9050919050565b60008160101c9050919050565b60006148c46148bf836148a4565b61487c565b9050919050565b60008160201c9050919050565b60006148eb6148e6836148cb565b61487c565b9050919050565b60008160301c9050919050565b600061491261490d836148f2565b61487c565b9050919050565b60008160401c9050919050565b600061493961493483614919565b61487c565b9050919050565b60a0820160008083015490506149558161488a565b6149626000860182614526565b5061496c816148b1565b6149796020860182614526565b50614983816148d8565b6149906040860182614526565b5061499a816148ff565b6149a76060860182614526565b506149b181614926565b6149be6080860182614526565b5050505050565b6080820160008083015490506149da8161488a565b6149e76000860182614526565b506149f1816148b1565b6149fe6020860182614526565b50614a08816148d8565b614a156040860182614526565b50614a1f816148ff565b614a2c6060860182614526565b5050505050565b6101a082016000808301549050614a498161488a565b614a566000860182614526565b50614a60816148b1565b614a6d6020860182614526565b50614a77816148d8565b614a846040860182614526565b5060018301614a966060860182614940565b5060028301614aa96101008601826149c5565b5060038301549050614aba8161488a565b614ac8610180860182614526565b5050505050565b600081549050919050565b600082825260208201905092915050565b60008190508160005260206000209050919050565b6000614b0c83836147ef565b905092915050565b6000600182019050919050565b6000614b2c82614acf565b614b368185614ada565b935083602082028501614b4885614aeb565b8060005b85811015614b8357848403895281614b648582614b00565b9450614b6f83614b14565b925060208a01995050600181019050614b4c565b50829750879550505050505092915050565b60006102a0830160008084018583036000870152614bb383826147ef565b925050600184018583036020870152614bcc83826147ef565b925050600284018583036040870152614be583826147ef565b92505060038401549050614bf88161488a565b614c056060870182614526565b50614c0f816148b1565b614c1c6080870182614526565b5060048401614c2e60a0870182614a33565b5060088401549050614c3f8161488a565b614c4d610240870182614526565b5060098401858303610260870152614c6583826147ef565b925050600a8401858303610280870152614c7f8382614b21565b925050819250505092915050565b60006020820190508181036000830152614ca78184614b95565b905092915050565b6000614cc2614cbd84613b0a565b6138ce565b905082815260208101848484011115614cde57614cdd613b05565b5b614ce984828561364c565b509392505050565b600082601f830112614d0657614d05613acf565b5b8151614d16848260208601614caf565b91505092915050565b600060208284031215614d3557614d3461356b565b5b600082015167ffffffffffffffff811115614d5357614d52613570565b5b614d5f84828501614cf1565b91505092915050565b7f4552433732313a20696e76616c696420746f6b656e2049440000000000000000600082015250565b6000614d9e60188361363b565b9150614da982614d68565b602082019050919050565b60006020820190508181036000830152614dcd81614d91565b9050919050565b7f4552433732313a2061646472657373207a65726f206973206e6f74206120766160008201527f6c6964206f776e65720000000000000000000000000000000000000000000000602082015250565b6000614e3060298361363b565b9150614e3b82614dd4565b604082019050919050565b60006020820190508181036000830152614e5f81614e23565b9050919050565b7f4e487b7100000000000000000000000000000000000000000000000000000000600052601160045260246000fd5b6000614ea0826136eb565b9150614eab836136eb565b9250827fffffffffffffffffffffffffffffffffffffffffffffffffffffffffffffffff03821115614ee057614edf614e66565b5b828201905092915050565b6000604082019050614f00600083018561451f565b614f0d602083018461477c565b9392505050565b600081905092915050565b6000614f2a82613630565b614f348185614f14565b9350614f4481856020860161364c565b80840191505092915050565b6000614f5c8285614f1f565b9150614f688284614f1f565b91508190509392505050565b7f4f776e61626c653a206e6577206f776e657220697320746865207a65726f206160008201527f6464726573730000000000000000000000000000000000000000000000000000602082015250565b6000614fd060268361363b565b9150614fdb82614f74565b604082019050919050565b60006020820190508181036000830152614fff81614fc3565b9050919050565b7f4552433732313a207472616e736665722066726f6d20696e636f72726563742060008201527f6f776e6572000000000000000000000000000000000000000000000000000000602082015250565b600061506260258361363b565b915061506d82615006565b604082019050919050565b6000602082019050818103600083015261509181615055565b9050919050565b7f4552433732313a207472616e7366657220746f20746865207a65726f2061646460008201527f7265737300000000000000000000000000000000000000000000000000000000602082015250565b60006150f460248361363b565b91506150ff82615098565b604082019050919050565b60006020820190508181036000830152615123816150e7565b9050919050565b7f45524337323155524953746f726167653a2055524920736574206f66206e6f6e60008201527f6578697374656e7420746f6b656e000000000000000000000000000000000000602082015250565b6000615186602e8361363b565b91506151918261512a565b604082019050919050565b600060208201905081810360008301526151b581615179565b9050919050565b7f4f776e61626c653a2063616c6c6572206973206e6f7420746865206f776e6572600082015250565b60006151f260208361363b565b91506151fd826151bc565b602082019050919050565b60006020820190508181036000830152615221816151e5565b9050919050565b7f4552433732313a20617070726f766520746f2063616c6c657200000000000000600082015250565b600061525e60198361363b565b915061526982615228565b602082019050919050565b6000602082019050818103600083015261528d81615251565b9050919050565b7f4552433732313a207472616e7366657220746f206e6f6e20455243373231526560008201527f63656976657220696d706c656d656e7465720000000000000000000000000000602082015250565b60006152f060328361363b565b91506152fb82615294565b604082019050919050565b6000602082019050818103600083015261531f816152e3565b9050919050565b600081519050919050565b600082825260208201905092915050565b600061534d82615326565b6153578185615331565b935061536781856020860161364c565b6153708161367f565b840191505092915050565b60006080820190506153906000830187613780565b61539d6020830186613780565b6153aa6040830185613f17565b81810360608301526153bc8184615342565b905095945050505050565b6000815190506153d6816135a1565b92915050565b6000602082840312156153f2576153f161356b565b5b6000615400848285016153c7565b91505092915050565b7f4e487b7100000000000000000000000000000000000000000000000000000000600052601260045260246000fd5b7f4552433732313a206d696e7420746f20746865207a65726f2061646472657373600082015250565b600061546e60208361363b565b915061547982615438565b602082019050919050565b6000602082019050818103600083015261549d81615461565b9050919050565b7f4552433732313a20746f6b656e20616c7265616479206d696e74656400000000600082015250565b60006154da601c8361363b565b91506154e5826154a4565b602082019050919050565b60006020820190508181036000830152615509816154cd565b905091905056fea2646970667358221220dc90d3a4fbc03564a7507daf204a962cbecb8eb3abda861b17930de6ef1891b964736f6c634300080c0033",
  "linkReferences": {
    "contracts/GearFactory.sol": {
      "GearFactory": [
        {
          "length": 20,
          "start": 4014
        },
        {
          "length": 20,
          "start": 4145
        },
        {
          "length": 20,
          "start": 6730
        },
        {
          "length": 20,
          "start": 8689
        },
        {
          "length": 20,
          "start": 8816
        }
      ]
    }
  },
  "deployedLinkReferences": {
    "contracts/GearFactory.sol": {
      "GearFactory": [
        {
          "length": 20,
          "start": 3291
        },
        {
          "length": 20,
          "start": 3422
        },
        {
          "length": 20,
          "start": 6007
        },
        {
          "length": 20,
          "start": 7966
        },
        {
          "length": 20,
          "start": 8093
        }
      ]
    }
  }
}