{
  "_format": "hh-sol-artifact-1",
  "contractName": "GearFactory_v2",
  "sourceName": "contracts/GearFactory_v2.sol",
  "abi": [
    {
      "anonymous": false,
      "inputs": [
        {
          "indexed": false,
          "internalType": "string",
          "name": "gearId",
          "type": "string"
        },
        {
          "components": [
            {
              "internalType": "uint16",
              "name": "hp",
              "type": "uint16"
            },
            {
              "internalType": "uint16",
              "name": "damage",
              "type": "uint16"
            },
            {
              "internalType": "uint16",
              "name": "speed",
              "type": "uint16"
            },
            {
              "internalType": "uint16",
              "name": "lvl",
              "type": "uint16"
            },
            {
              "internalType": "string",
              "name": "id",
              "type": "string"
            },
            {
              "internalType": "string",
              "name": "name",
              "type": "string"
            },
            {
              "internalType": "string",
              "name": "description",
              "type": "string"
            }
          ],
          "indexed": false,
          "internalType": "struct GearFactory_v2.Stats",
          "name": "createdGear",
          "type": "tuple"
        }
      ],
      "name": "NewGearCreated",
      "type": "event"
    },
    {
      "anonymous": false,
      "inputs": [
        {
          "indexed": true,
          "internalType": "address",
          "name": "previousOwner",
          "type": "address"
        },
        {
          "indexed": true,
          "internalType": "address",
          "name": "newOwner",
          "type": "address"
        }
      ],
      "name": "OwnershipTransferred",
      "type": "event"
    },
    {
      "anonymous": false,
      "inputs": [
        {
          "indexed": false,
          "internalType": "string",
          "name": "contractAddress",
          "type": "string"
        },
        {
          "components": [
            {
              "internalType": "uint16",
              "name": "hp",
              "type": "uint16"
            },
            {
              "internalType": "uint16",
              "name": "damage",
              "type": "uint16"
            },
            {
              "internalType": "uint16",
              "name": "speed",
              "type": "uint16"
            },
            {
              "internalType": "uint16",
              "name": "lvl",
              "type": "uint16"
            },
            {
              "internalType": "string",
              "name": "id",
              "type": "string"
            },
            {
              "internalType": "string",
              "name": "name",
              "type": "string"
            },
            {
              "internalType": "string",
              "name": "description",
              "type": "string"
            }
          ],
          "indexed": false,
          "internalType": "struct GearFactory_v2.Stats",
          "name": "stats",
          "type": "tuple"
        }
      ],
      "name": "StatsForNft",
      "type": "event"
    },
    {
      "inputs": [
        {
          "components": [
            {
              "internalType": "address",
              "name": "contractAddress",
              "type": "address"
            },
            {
              "internalType": "uint256",
              "name": "tokenId",
              "type": "uint256"
            }
          ],
          "internalType": "struct GearFactory_v2.NftInfo",
          "name": "_nftInfo",
          "type": "tuple"
        },
        {
          "internalType": "string",
          "name": "_name",
          "type": "string"
        }
      ],
      "name": "createGear",
      "outputs": [],
      "stateMutability": "nonpayable",
      "type": "function"
    },
    {
      "inputs": [
        {
          "internalType": "string",
          "name": "",
          "type": "string"
        }
      ],
      "name": "gears",
      "outputs": [
        {
          "internalType": "uint16",
          "name": "hp",
          "type": "uint16"
        },
        {
          "internalType": "uint16",
          "name": "damage",
          "type": "uint16"
        },
        {
          "internalType": "uint16",
          "name": "speed",
          "type": "uint16"
        },
        {
          "internalType": "uint16",
          "name": "lvl",
          "type": "uint16"
        },
        {
          "internalType": "string",
          "name": "id",
          "type": "string"
        },
        {
          "internalType": "string",
          "name": "name",
          "type": "string"
        },
        {
          "internalType": "string",
          "name": "description",
          "type": "string"
        }
      ],
      "stateMutability": "view",
      "type": "function"
    },
    {
      "inputs": [
        {
          "internalType": "string",
          "name": "id",
          "type": "string"
        }
      ],
      "name": "getGear",
      "outputs": [
        {
          "components": [
            {
              "internalType": "uint16",
              "name": "hp",
              "type": "uint16"
            },
            {
              "internalType": "uint16",
              "name": "damage",
              "type": "uint16"
            },
            {
              "internalType": "uint16",
              "name": "speed",
              "type": "uint16"
            },
            {
              "internalType": "uint16",
              "name": "lvl",
              "type": "uint16"
            },
            {
              "internalType": "string",
              "name": "id",
              "type": "string"
            },
            {
              "internalType": "string",
              "name": "name",
              "type": "string"
            },
            {
              "internalType": "string",
              "name": "description",
              "type": "string"
            }
          ],
          "internalType": "struct GearFactory_v2.Stats",
          "name": "",
          "type": "tuple"
        }
      ],
      "stateMutability": "view",
      "type": "function"
    },
    {
      "inputs": [
        {
          "internalType": "address",
          "name": "_contractAdd",
          "type": "address"
        }
      ],
      "name": "getStatsForNft",
      "outputs": [
        {
          "components": [
            {
              "internalType": "uint16",
              "name": "hp",
              "type": "uint16"
            },
            {
              "internalType": "uint16",
              "name": "damage",
              "type": "uint16"
            },
            {
              "internalType": "uint16",
              "name": "speed",
              "type": "uint16"
            },
            {
              "internalType": "uint16",
              "name": "lvl",
              "type": "uint16"
            },
            {
              "internalType": "string",
              "name": "id",
              "type": "string"
            },
            {
              "internalType": "string",
              "name": "name",
              "type": "string"
            },
            {
              "internalType": "string",
              "name": "description",
              "type": "string"
            }
          ],
          "internalType": "struct GearFactory_v2.Stats",
          "name": "",
          "type": "tuple"
        }
      ],
      "stateMutability": "view",
      "type": "function"
    },
    {
      "inputs": [],
      "name": "owner",
      "outputs": [
        {
          "internalType": "address",
          "name": "",
          "type": "address"
        }
      ],
      "stateMutability": "view",
      "type": "function"
    },
    {
      "inputs": [],
      "name": "renounceOwnership",
      "outputs": [],
      "stateMutability": "nonpayable",
      "type": "function"
    },
    {
      "inputs": [
        {
          "internalType": "address",
          "name": "_contractAdd",
          "type": "address"
        },
        {
          "components": [
            {
              "internalType": "uint16",
              "name": "hp",
              "type": "uint16"
            },
            {
              "internalType": "uint16",
              "name": "damage",
              "type": "uint16"
            },
            {
              "internalType": "uint16",
              "name": "speed",
              "type": "uint16"
            },
            {
              "internalType": "uint16",
              "name": "lvl",
              "type": "uint16"
            },
            {
              "internalType": "string",
              "name": "id",
              "type": "string"
            },
            {
              "internalType": "string",
              "name": "name",
              "type": "string"
            },
            {
              "internalType": "string",
              "name": "description",
              "type": "string"
            }
          ],
          "internalType": "struct GearFactory_v2.Stats",
          "name": "_stats",
          "type": "tuple"
        }
      ],
      "name": "setStatsForNft",
      "outputs": [],
      "stateMutability": "nonpayable",
      "type": "function"
    },
    {
      "inputs": [
        {
          "internalType": "address",
          "name": "newOwner",
          "type": "address"
        }
      ],
      "name": "transferOwnership",
      "outputs": [],
      "stateMutability": "nonpayable",
      "type": "function"
    }
  ],
  "bytecode": "0x60806040523480156200001157600080fd5b5062000032620000266200003860201b60201c565b6200004060201b60201c565b62000104565b600033905090565b60008060009054906101000a900473ffffffffffffffffffffffffffffffffffffffff169050816000806101000a81548173ffffffffffffffffffffffffffffffffffffffff021916908373ffffffffffffffffffffffffffffffffffffffff1602179055508173ffffffffffffffffffffffffffffffffffffffff168173ffffffffffffffffffffffffffffffffffffffff167f8be0079c531659141344cd1fd0a4f28419497f9722a3daafe3b4186f6b6457e060405160405180910390a35050565b612e8380620001146000396000f3fe608060405234801561001057600080fd5b50600436106100885760003560e01c8063715018a61161005b578063715018a61461013f5780638da5cb5b14610149578063b5f8c7e814610167578063f2fde38b1461018357610088565b80633cca4be81461008d578063502ad738146100bd5780635fec347e146100ed5780636b87b10014610123575b600080fd5b6100a760048036038101906100a291906117c8565b61019f565b6040516100b4919061194c565b60405180910390f35b6100d760048036038101906100d291906119d3565b61042e565b6040516100e4919061194c565b60405180910390f35b61010760048036038101906101029190611b50565b61069f565b60405161011a9796959493929190611bf2565b60405180910390f35b61013d60048036038101906101389190611d01565b6108c7565b005b610147610ed2565b005b610151610ee6565b60405161015e9190611d6c565b60405180910390f35b610181600480360381019061017c9190611dab565b610f0f565b005b61019d600480360381019061019891906117c8565b610fd3565b005b6101a7611709565b600160008373ffffffffffffffffffffffffffffffffffffffff1673ffffffffffffffffffffffffffffffffffffffff1681526020019081526020016000206040518060e00160405290816000820160009054906101000a900461ffff1661ffff1661ffff1681526020016000820160029054906101000a900461ffff1661ffff1661ffff1681526020016000820160049054906101000a900461ffff1661ffff1661ffff1681526020016000820160069054906101000a900461ffff1661ffff1661ffff16815260200160018201805461028190611e36565b80601f01602080910402602001604051908101604052809291908181526020018280546102ad90611e36565b80156102fa5780601f106102cf576101008083540402835291602001916102fa565b820191906000526020600020905b8154815290600101906020018083116102dd57829003601f168201915b5050505050815260200160028201805461031390611e36565b80601f016020809104026020016040519081016040528092919081815260200182805461033f90611e36565b801561038c5780601f106103615761010080835404028352916020019161038c565b820191906000526020600020905b81548152906001019060200180831161036f57829003601f168201915b505050505081526020016003820180546103a590611e36565b80601f01602080910402602001604051908101604052809291908181526020018280546103d190611e36565b801561041e5780601f106103f35761010080835404028352916020019161041e565b820191906000526020600020905b81548152906001019060200180831161040157829003601f168201915b5050505050815250509050919050565b610436611709565b60028383604051610448929190611e97565b90815260200160405180910390206040518060e00160405290816000820160009054906101000a900461ffff1661ffff1661ffff1681526020016000820160029054906101000a900461ffff1661ffff1661ffff1681526020016000820160049054906101000a900461ffff1661ffff1661ffff1681526020016000820160069054906101000a900461ffff1661ffff1661ffff1681526020016001820180546104f190611e36565b80601f016020809104026020016040519081016040528092919081815260200182805461051d90611e36565b801561056a5780601f1061053f5761010080835404028352916020019161056a565b820191906000526020600020905b81548152906001019060200180831161054d57829003601f168201915b5050505050815260200160028201805461058390611e36565b80601f01602080910402602001604051908101604052809291908181526020018280546105af90611e36565b80156105fc5780601f106105d1576101008083540402835291602001916105fc565b820191906000526020600020905b8154815290600101906020018083116105df57829003601f168201915b5050505050815260200160038201805461061590611e36565b80601f016020809104026020016040519081016040528092919081815260200182805461064190611e36565b801561068e5780601f106106635761010080835404028352916020019161068e565b820191906000526020600020905b81548152906001019060200180831161067157829003601f168201915b505050505081525050905092915050565b6002818051602081018201805184825260208301602085012081835280955050505050506000915090508060000160009054906101000a900461ffff16908060000160029054906101000a900461ffff16908060000160049054906101000a900461ffff16908060000160069054906101000a900461ffff169080600101805461072890611e36565b80601f016020809104026020016040519081016040528092919081815260200182805461075490611e36565b80156107a15780601f10610776576101008083540402835291602001916107a1565b820191906000526020600020905b81548152906001019060200180831161078457829003601f168201915b5050505050908060020180546107b690611e36565b80601f01602080910402602001604051908101604052809291908181526020018280546107e290611e36565b801561082f5780601f106108045761010080835404028352916020019161082f565b820191906000526020600020905b81548152906001019060200180831161081257829003601f168201915b50505050509080600301805461084490611e36565b80601f016020809104026020016040519081016040528092919081815260200182805461087090611e36565b80156108bd5780601f10610892576101008083540402835291602001916108bd565b820191906000526020600020905b8154815290600101906020018083116108a057829003601f168201915b5050505050905087565b6108cf611056565b600060016000846000015173ffffffffffffffffffffffffffffffffffffffff1673ffffffffffffffffffffffffffffffffffffffff16815260200190815260200160002060000160069054906101000a900461ffff1661ffff160361096a576040517f08c379a000000000000000000000000000000000000000000000000000000000815260040161096190611f22565b60405180910390fd5b600060016000846000015173ffffffffffffffffffffffffffffffffffffffff1673ffffffffffffffffffffffffffffffffffffffff1681526020019081526020016000206040518060e00160405290816000820160009054906101000a900461ffff1661ffff1661ffff1681526020016000820160029054906101000a900461ffff1661ffff1661ffff1681526020016000820160049054906101000a900461ffff1661ffff1661ffff1681526020016000820160069054906101000a900461ffff1661ffff1661ffff168152602001600182018054610a4a90611e36565b80601f0160208091040260200160405190810160405280929190818152602001828054610a7690611e36565b8015610ac35780601f10610a9857610100808354040283529160200191610ac3565b820191906000526020600020905b815481529060010190602001808311610aa657829003601f168201915b50505050508152602001600282018054610adc90611e36565b80601f0160208091040260200160405190810160405280929190818152602001828054610b0890611e36565b8015610b555780601f10610b2a57610100808354040283529160200191610b55565b820191906000526020600020905b815481529060010190602001808311610b3857829003601f168201915b50505050508152602001600382018054610b6e90611e36565b80601f0160208091040260200160405190810160405280929190818152602001828054610b9a90611e36565b8015610be75780601f10610bbc57610100808354040283529160200191610be7565b820191906000526020600020905b815481529060010190602001808311610bca57829003601f168201915b50505050508152505090506000610bfd846110d4565b9050808260800181905250828260a0018190525081600282604051610c229190611f73565b908152602001604051809103902060008201518160000160006101000a81548161ffff021916908361ffff16021790555060208201518160000160026101000a81548161ffff021916908361ffff16021790555060408201518160000160046101000a81548161ffff021916908361ffff16021790555060608201518160000160066101000a81548161ffff021916908361ffff1602179055506080820151816001019081610cd19190612136565b5060a0820151816002019081610ce79190612136565b5060c0820151816003019081610cfd9190612136565b50905050610e936040518060400160405280601c81526020017f6765617220637265617465643a20257320776974682069643a20257300000000815250600283604051610d4a9190611f73565b90815260200160405180910390206002018054610d6690611e36565b80601f0160208091040260200160405190810160405280929190818152602001828054610d9290611e36565b8015610ddf5780601f10610db457610100808354040283529160200191610ddf565b820191906000526020600020905b815481529060010190602001808311610dc257829003601f168201915b5050505050600284604051610df49190611f73565b90815260200160405180910390206001018054610e1090611e36565b80601f0160208091040260200160405190810160405280929190818152602001828054610e3c90611e36565b8015610e895780601f10610e5e57610100808354040283529160200191610e89565b820191906000526020600020905b815481529060010190602001808311610e6c57829003601f168201915b505050505061114b565b7f6960d4137397f160f3b6b8277c833da3e366eeab4daa73f7d979f4daa94c5c338183604051610ec4929190612208565b60405180910390a150505050565b610eda611056565b610ee460006111ea565b565b60008060009054906101000a900473ffffffffffffffffffffffffffffffffffffffff16905090565b610f17611056565b80600160008473ffffffffffffffffffffffffffffffffffffffff1673ffffffffffffffffffffffffffffffffffffffff1681526020019081526020016000208181610f63919061263c565b9050506000610f71836112ae565b905080604051602001610f849190612670565b60405160208183030381529060405290507fec0e957e830f12202ed660d0af7fbe7a1eefe161f3f8fed4f2771d3a878501168183604051610fc6929190612849565b60405180910390a1505050565b610fdb611056565b600073ffffffffffffffffffffffffffffffffffffffff168173ffffffffffffffffffffffffffffffffffffffff160361104a576040517f08c379a0000000000000000000000000000000000000000000000000000000008152600401611041906128f2565b60405180910390fd5b611053816111ea565b50565b61105e611471565b73ffffffffffffffffffffffffffffffffffffffff1661107c610ee6565b73ffffffffffffffffffffffffffffffffffffffff16146110d2576040517f08c379a00000000000000000000000000000000000000000000000000000000081526004016110c99061295e565b60405180910390fd5b565b606060006110e583600001516112ae565b905060006110f68460200151611479565b905060008260405160200161110b91906129a4565b6040516020818303038152906040529050808260405160200161112f9291906129ca565b6040516020818303038152906040529050809350505050919050565b6111e5838383604051602401611163939291906129ee565b6040516020818303038152906040527f2ced7cef000000000000000000000000000000000000000000000000000000007bffffffffffffffffffffffffffffffffffffffffffffffffffffffff19166020820180517bffffffffffffffffffffffffffffffffffffffffffffffffffffffff8381831617835250505050611547565b505050565b60008060009054906101000a900473ffffffffffffffffffffffffffffffffffffffff169050816000806101000a81548173ffffffffffffffffffffffffffffffffffffffff021916908373ffffffffffffffffffffffffffffffffffffffff1602179055508173ffffffffffffffffffffffffffffffffffffffff168173ffffffffffffffffffffffffffffffffffffffff167f8be0079c531659141344cd1fd0a4f28419497f9722a3daafe3b4186f6b6457e060405160405180910390a35050565b60606000602867ffffffffffffffff8111156112cd576112cc611a25565b5b6040519080825280601f01601f1916602001820160405280156112ff5781602001600182028036833780820191505090505b50905060005b601481101561146757600081601361131d9190612a69565b60086113299190612a9d565b60026113359190612c12565b8573ffffffffffffffffffffffffffffffffffffffff166113569190612c8c565b60f81b9050600060108260f81c61136d9190612cca565b60f81b905060008160f81c60106113849190612cfb565b8360f81c6113929190612d38565b60f81b90506113a082611570565b858560026113ae9190612a9d565b815181106113bf576113be612d6d565b5b60200101907effffffffffffffffffffffffffffffffffffffffffffffffffffffffffffff1916908160001a9053506113f781611570565b8560018660026114079190612a9d565b6114119190612d9c565b8151811061142257611421612d6d565b5b60200101907effffffffffffffffffffffffffffffffffffffffffffffffffffffffffffff1916908160001a905350505050808061145f90612dd0565b915050611305565b5080915050919050565b600033905090565b606060006001611488846115b6565b01905060008167ffffffffffffffff8111156114a7576114a6611a25565b5b6040519080825280601f01601f1916602001820160405280156114d95781602001600182028036833780820191505090505b509050600082602001820190505b60011561153c578080600190039150507f3031323334353637383961626364656600000000000000000000000000000000600a86061a8153600a85816115305761152f612c5d565b5b049450600085036114e7575b819350505050919050565b60008151905060006a636f6e736f6c652e6c6f679050602083016000808483855afa5050505050565b6000600a8260f81c60ff16101561159b5760308260f81c6115919190612e18565b60f81b90506115b1565b60578260f81c6115ab9190612e18565b60f81b90505b919050565b600080600090507a184f03e93ff9f4daa797ed6e38ed64bf6a1f0100000000000000008310611614577a184f03e93ff9f4daa797ed6e38ed64bf6a1f010000000000000000838161160a57611609612c5d565b5b0492506040810190505b6d04ee2d6d415b85acef81000000008310611651576d04ee2d6d415b85acef8100000000838161164757611646612c5d565b5b0492506020810190505b662386f26fc10000831061168057662386f26fc10000838161167657611675612c5d565b5b0492506010810190505b6305f5e10083106116a9576305f5e100838161169f5761169e612c5d565b5b0492506008810190505b61271083106116ce5761271083816116c4576116c3612c5d565b5b0492506004810190505b606483106116f157606483816116e7576116e6612c5d565b5b0492506002810190505b600a8310611700576001810190505b80915050919050565b6040518060e00160405280600061ffff168152602001600061ffff168152602001600061ffff168152602001600061ffff1681526020016060815260200160608152602001606081525090565b6000604051905090565b600080fd5b600080fd5b600073ffffffffffffffffffffffffffffffffffffffff82169050919050565b60006117958261176a565b9050919050565b6117a58161178a565b81146117b057600080fd5b50565b6000813590506117c28161179c565b92915050565b6000602082840312156117de576117dd611760565b5b60006117ec848285016117b3565b91505092915050565b600061ffff82169050919050565b61180c816117f5565b82525050565b600081519050919050565b600082825260208201905092915050565b60005b8381101561184c578082015181840152602081019050611831565b60008484015250505050565b6000601f19601f8301169050919050565b600061187482611812565b61187e818561181d565b935061188e81856020860161182e565b61189781611858565b840191505092915050565b600060e0830160008301516118ba6000860182611803565b5060208301516118cd6020860182611803565b5060408301516118e06040860182611803565b5060608301516118f36060860182611803565b506080830151848203608086015261190b8282611869565b91505060a083015184820360a08601526119258282611869565b91505060c083015184820360c086015261193f8282611869565b9150508091505092915050565b6000602082019050818103600083015261196681846118a2565b905092915050565b600080fd5b600080fd5b600080fd5b60008083601f8401126119935761199261196e565b5b8235905067ffffffffffffffff8111156119b0576119af611973565b5b6020830191508360018202830111156119cc576119cb611978565b5b9250929050565b600080602083850312156119ea576119e9611760565b5b600083013567ffffffffffffffff811115611a0857611a07611765565b5b611a148582860161197d565b92509250509250929050565b600080fd5b7f4e487b7100000000000000000000000000000000000000000000000000000000600052604160045260246000fd5b611a5d82611858565b810181811067ffffffffffffffff82111715611a7c57611a7b611a25565b5b80604052505050565b6000611a8f611756565b9050611a9b8282611a54565b919050565b600067ffffffffffffffff821115611abb57611aba611a25565b5b611ac482611858565b9050602081019050919050565b82818337600083830152505050565b6000611af3611aee84611aa0565b611a85565b905082815260208101848484011115611b0f57611b0e611a20565b5b611b1a848285611ad1565b509392505050565b600082601f830112611b3757611b3661196e565b5b8135611b47848260208601611ae0565b91505092915050565b600060208284031215611b6657611b65611760565b5b600082013567ffffffffffffffff811115611b8457611b83611765565b5b611b9084828501611b22565b91505092915050565b611ba2816117f5565b82525050565b600082825260208201905092915050565b6000611bc482611812565b611bce8185611ba8565b9350611bde81856020860161182e565b611be781611858565b840191505092915050565b600060e082019050611c07600083018a611b99565b611c146020830189611b99565b611c216040830188611b99565b611c2e6060830187611b99565b8181036080830152611c408186611bb9565b905081810360a0830152611c548185611bb9565b905081810360c0830152611c688184611bb9565b905098975050505050505050565b600080fd5b6000819050919050565b611c8e81611c7b565b8114611c9957600080fd5b50565b600081359050611cab81611c85565b92915050565b600060408284031215611cc757611cc6611c76565b5b611cd16040611a85565b90506000611ce1848285016117b3565b6000830152506020611cf584828501611c9c565b60208301525092915050565b60008060608385031215611d1857611d17611760565b5b6000611d2685828601611cb1565b925050604083013567ffffffffffffffff811115611d4757611d46611765565b5b611d5385828601611b22565b9150509250929050565b611d668161178a565b82525050565b6000602082019050611d816000830184611d5d565b92915050565b600080fd5b600060e08284031215611da257611da1611d87565b5b81905092915050565b60008060408385031215611dc257611dc1611760565b5b6000611dd0858286016117b3565b925050602083013567ffffffffffffffff811115611df157611df0611765565b5b611dfd85828601611d8c565b9150509250929050565b7f4e487b7100000000000000000000000000000000000000000000000000000000600052602260045260246000fd5b60006002820490506001821680611e4e57607f821691505b602082108103611e6157611e60611e07565b5b50919050565b600081905092915050565b6000611e7e8385611e67565b9350611e8b838584611ad1565b82840190509392505050565b6000611ea4828486611e72565b91508190509392505050565b7f54686520636f6e7472616374206164647265737320697320756e6b6e6f776e2060008201527f736f206e6f2073746174732065786973742e0000000000000000000000000000602082015250565b6000611f0c603283611ba8565b9150611f1782611eb0565b604082019050919050565b60006020820190508181036000830152611f3b81611eff565b9050919050565b6000611f4d82611812565b611f578185611e67565b9350611f6781856020860161182e565b80840191505092915050565b6000611f7f8284611f42565b915081905092915050565b60008190508160005260206000209050919050565b60006020601f8301049050919050565b600082821b905092915050565b600060088302611fec7fffffffffffffffffffffffffffffffffffffffffffffffffffffffffffffffff82611faf565b611ff68683611faf565b95508019841693508086168417925050509392505050565b6000819050919050565b600061203361202e61202984611c7b565b61200e565b611c7b565b9050919050565b6000819050919050565b61204d83612018565b6120616120598261203a565b848454611fbc565b825550505050565b600090565b612076612069565b612081818484612044565b505050565b5b818110156120a55761209a60008261206e565b600181019050612087565b5050565b601f8211156120ea576120bb81611f8a565b6120c484611f9f565b810160208510156120d3578190505b6120e76120df85611f9f565b830182612086565b50505b505050565b600082821c905092915050565b600061210d600019846008026120ef565b1980831691505092915050565b600061212683836120fc565b9150826002028217905092915050565b61213f82611812565b67ffffffffffffffff81111561215857612157611a25565b5b6121628254611e36565b61216d8282856120a9565b600060209050601f8311600181146121a0576000841561218e578287015190505b612198858261211a565b865550612200565b601f1984166121ae86611f8a565b60005b828110156121d6578489015182556001820191506020850194506020810190506121b1565b868310156121f357848901516121ef601f8916826120fc565b8355505b6001600288020188555050505b505050505050565b600060408201905081810360008301526122228185611bb9565b9050818103602083015261223681846118a2565b90509392505050565b612248816117f5565b811461225357600080fd5b50565b600081356122638161223f565b80915050919050565b60008160001b9050919050565b600061ffff6122878461226c565b9350801983169250808416831791505092915050565b60006122b86122b36122ae846117f5565b61200e565b6117f5565b9050919050565b6000819050919050565b6122d28261229d565b6122e56122de826122bf565b8354612279565b8255505050565b60008160101b9050919050565b600063ffff0000612309846122ec565b9350801983169250808416831791505092915050565b6123288261229d565b61233b612334826122bf565b83546122f9565b8255505050565b60008160201b9050919050565b600065ffff0000000061236184612342565b9350801983169250808416831791505092915050565b6123808261229d565b61239361238c826122bf565b835461234f565b8255505050565b60008160301b9050919050565b600067ffff0000000000006123bb8461239a565b9350801983169250808416831791505092915050565b6123da8261229d565b6123ed6123e6826122bf565b83546123a7565b8255505050565b600080fd5b600080fd5b600080fd5b600080833560016020038436030381126124205761241f6123f4565b5b80840192508235915067ffffffffffffffff821115612442576124416123f9565b5b60208301925060018202360383131561245e5761245d6123fe565b5b509250929050565b600082905092915050565b61247b8383612466565b67ffffffffffffffff81111561249457612493611a25565b5b61249e8254611e36565b6124a98282856120a9565b6000601f8311600181146124d857600084156124c6578287013590505b6124d0858261211a565b865550612538565b601f1984166124e686611f8a565b60005b8281101561250e578489013582556001820191506020850194506020810190506124e9565b8683101561252b5784890135612527601f8916826120fc565b8355505b6001600288020188555050505b50505050505050565b61254c838383612471565b505050565b60008101600083018061256381612256565b905061256f81846122c9565b50505060008101602083018061258481612256565b9050612590818461231f565b5050506000810160408301806125a581612256565b90506125b18184612377565b5050506000810160608301806125c681612256565b90506125d281846123d1565b50505060018101608083016125e78185612403565b6125f2818386612541565b505050506002810160a083016126088185612403565b612613818386612541565b505050506003810160c083016126298185612403565b612634818386612541565b505050505050565b6126468282612551565b5050565b7f3078000000000000000000000000000000000000000000000000000000000000815250565b600061267b8261264a565b60028201915061268b8284611f42565b915081905092915050565b6000813590506126a58161223f565b92915050565b60006126ba6020840184612696565b905092915050565b600080fd5b600080fd5b600080fd5b600080833560016020038436030381126126ee576126ed6126cc565b5b83810192508235915060208301925067ffffffffffffffff821115612716576127156126c2565b5b60018202360383131561272c5761272b6126c7565b5b509250929050565b6000612740838561181d565b935061274d838584611ad1565b61275683611858565b840190509392505050565b600060e0830161277460008401846126ab565b6127816000860182611803565b5061278f60208401846126ab565b61279c6020860182611803565b506127aa60408401846126ab565b6127b76040860182611803565b506127c560608401846126ab565b6127d26060860182611803565b506127e060808401846126d1565b85830360808701526127f3838284612734565b9250505061280460a08401846126d1565b85830360a0870152612817838284612734565b9250505061282860c08401846126d1565b85830360c087015261283b838284612734565b925050508091505092915050565b600060408201905081810360008301526128638185611bb9565b905081810360208301526128778184612761565b90509392505050565b7f4f776e61626c653a206e6577206f776e657220697320746865207a65726f206160008201527f6464726573730000000000000000000000000000000000000000000000000000602082015250565b60006128dc602683611ba8565b91506128e782612880565b604082019050919050565b6000602082019050818103600083015261290b816128cf565b9050919050565b7f4f776e61626c653a2063616c6c6572206973206e6f7420746865206f776e6572600082015250565b6000612948602083611ba8565b915061295382612912565b602082019050919050565b600060208201905081810360008301526129778161293b565b9050919050565b7f2000000000000000000000000000000000000000000000000000000000000000815250565b60006129b08284611f42565b91506129bb8261297e565b60018201915081905092915050565b60006129d68285611f42565b91506129e28284611f42565b91508190509392505050565b60006060820190508181036000830152612a088186611bb9565b90508181036020830152612a1c8185611bb9565b90508181036040830152612a308184611bb9565b9050949350505050565b7f4e487b7100000000000000000000000000000000000000000000000000000000600052601160045260246000fd5b6000612a7482611c7b565b9150612a7f83611c7b565b9250828203905081811115612a9757612a96612a3a565b5b92915050565b6000612aa882611c7b565b9150612ab383611c7b565b9250828202612ac181611c7b565b91508282048414831517612ad857612ad7612a3a565b5b5092915050565b60008160011c9050919050565b6000808291508390505b6001851115612b3657808604811115612b1257612b11612a3a565b5b6001851615612b215780820291505b8081029050612b2f85612adf565b9450612af6565b94509492505050565b600082612b4f5760019050612c0b565b81612b5d5760009050612c0b565b8160018114612b735760028114612b7d57612bac565b6001915050612c0b565b60ff841115612b8f57612b8e612a3a565b5b8360020a915084821115612ba657612ba5612a3a565b5b50612c0b565b5060208310610133831016604e8410600b8410161715612be15782820a905083811115612bdc57612bdb612a3a565b5b612c0b565b612bee8484846001612aec565b92509050818404811115612c0557612c04612a3a565b5b81810290505b9392505050565b6000612c1d82611c7b565b9150612c2883611c7b565b9250612c557fffffffffffffffffffffffffffffffffffffffffffffffffffffffffffffffff8484612b3f565b905092915050565b7f4e487b7100000000000000000000000000000000000000000000000000000000600052601260045260246000fd5b6000612c9782611c7b565b9150612ca283611c7b565b925082612cb257612cb1612c5d565b5b828204905092915050565b600060ff82169050919050565b6000612cd582612cbd565b9150612ce083612cbd565b925082612cf057612cef612c5d565b5b828204905092915050565b6000612d0682612cbd565b9150612d1183612cbd565b9250828202612d1f81612cbd565b9150808214612d3157612d30612a3a565b5b5092915050565b6000612d4382612cbd565b9150612d4e83612cbd565b9250828203905060ff811115612d6757612d66612a3a565b5b92915050565b7f4e487b7100000000000000000000000000000000000000000000000000000000600052603260045260246000fd5b6000612da782611c7b565b9150612db283611c7b565b9250828201905080821115612dca57612dc9612a3a565b5b92915050565b6000612ddb82611c7b565b91507fffffffffffffffffffffffffffffffffffffffffffffffffffffffffffffffff8203612e0d57612e0c612a3a565b5b600182019050919050565b6000612e2382612cbd565b9150612e2e83612cbd565b9250828201905060ff811115612e4757612e46612a3a565b5b9291505056fea2646970667358221220020c3b28e0dcb0d471ee11ed04f100f262d73b06ae4891ae0cf7b1f88a92142664736f6c63430008110033",
  "linkReferences": {},
  "deployedLinkReferences": {}
}